{
  "_format": "hh-sol-artifact-1",
  "contractName": "Airdrop",
  "sourceName": "contracts/Airdrop.sol",
  "abi": [
    {
      "inputs": [
        {
          "internalType": "address",
          "name": "_token",
          "type": "address"
        },
        {
          "internalType": "bytes32",
          "name": "_merkleRoot",
          "type": "bytes32"
        }
      ],
      "stateMutability": "nonpayable",
      "type": "constructor"
    },
    {
      "inputs": [
        {
          "internalType": "address",
          "name": "owner",
          "type": "address"
        }
      ],
      "name": "OwnableInvalidOwner",
      "type": "error"
    },
    {
      "inputs": [
        {
          "internalType": "address",
          "name": "account",
          "type": "address"
        }
      ],
      "name": "OwnableUnauthorizedAccount",
      "type": "error"
    },
    {
      "anonymous": false,
      "inputs": [
        {
          "indexed": true,
          "internalType": "address",
          "name": "claimant",
          "type": "address"
        },
        {
          "indexed": false,
          "internalType": "uint256",
          "name": "amount",
          "type": "uint256"
        }
      ],
      "name": "AirdropClaimed",
      "type": "event"
    },
    {
      "anonymous": false,
      "inputs": [],
      "name": "ClaimSuccessful",
      "type": "event"
    },
    {
      "anonymous": false,
      "inputs": [
        {
          "indexed": true,
          "internalType": "address",
          "name": "previousOwner",
          "type": "address"
        },
        {
          "indexed": true,
          "internalType": "address",
          "name": "newOwner",
          "type": "address"
        }
      ],
      "name": "OwnershipTransferred",
      "type": "event"
    },
    {
      "inputs": [
        {
          "internalType": "bytes32[]",
          "name": "proof",
          "type": "bytes32[]"
        },
        {
          "internalType": "uint256",
          "name": "amount",
          "type": "uint256"
        }
      ],
      "name": "ClaimAirdrop",
      "outputs": [],
      "stateMutability": "nonpayable",
      "type": "function"
    },
    {
      "inputs": [
        {
          "internalType": "address",
          "name": "",
          "type": "address"
        }
      ],
      "name": "hasClaimed",
      "outputs": [
        {
          "internalType": "bool",
          "name": "",
          "type": "bool"
        }
      ],
      "stateMutability": "view",
      "type": "function"
    },
    {
      "inputs": [],
      "name": "merkleRoot",
      "outputs": [
        {
          "internalType": "bytes32",
          "name": "",
          "type": "bytes32"
        }
      ],
      "stateMutability": "view",
      "type": "function"
    },
    {
      "inputs": [],
      "name": "owner",
      "outputs": [
        {
          "internalType": "address",
          "name": "",
          "type": "address"
        }
      ],
      "stateMutability": "view",
      "type": "function"
    },
    {
      "inputs": [],
      "name": "renounceOwnership",
      "outputs": [],
      "stateMutability": "nonpayable",
      "type": "function"
    },
    {
      "inputs": [],
      "name": "token",
      "outputs": [
        {
          "internalType": "contract IERC20",
          "name": "",
          "type": "address"
        }
      ],
      "stateMutability": "view",
      "type": "function"
    },
    {
      "inputs": [
        {
          "internalType": "address",
          "name": "newOwner",
          "type": "address"
        }
      ],
      "name": "transferOwnership",
      "outputs": [],
      "stateMutability": "nonpayable",
      "type": "function"
    },
    {
      "inputs": [],
      "name": "withdrawRemainingTokens",
      "outputs": [],
      "stateMutability": "nonpayable",
      "type": "function"
    }
  ],
  "bytecode": "0x60806040523480156200001157600080fd5b50604051620011c4380380620011c4833981810160405281019062000037919062000278565b33600073ffffffffffffffffffffffffffffffffffffffff168173ffffffffffffffffffffffffffffffffffffffff1603620000ad5760006040517f1e4fbdf7000000000000000000000000000000000000000000000000000000008152600401620000a49190620002d0565b60405180910390fd5b620000be816200010f60201b60201c565b5081600260006101000a81548173ffffffffffffffffffffffffffffffffffffffff021916908373ffffffffffffffffffffffffffffffffffffffff160217905550806001819055505050620002ed565b60008060009054906101000a900473ffffffffffffffffffffffffffffffffffffffff169050816000806101000a81548173ffffffffffffffffffffffffffffffffffffffff021916908373ffffffffffffffffffffffffffffffffffffffff1602179055508173ffffffffffffffffffffffffffffffffffffffff168173ffffffffffffffffffffffffffffffffffffffff167f8be0079c531659141344cd1fd0a4f28419497f9722a3daafe3b4186f6b6457e060405160405180910390a35050565b600080fd5b600073ffffffffffffffffffffffffffffffffffffffff82169050919050565b60006200020582620001d8565b9050919050565b6200021781620001f8565b81146200022357600080fd5b50565b60008151905062000237816200020c565b92915050565b6000819050919050565b62000252816200023d565b81146200025e57600080fd5b50565b600081519050620002728162000247565b92915050565b60008060408385031215620002925762000291620001d3565b5b6000620002a28582860162000226565b9250506020620002b58582860162000261565b9150509250929050565b620002ca81620001f8565b82525050565b6000602082019050620002e76000830184620002bf565b92915050565b610ec780620002fd6000396000f3fe608060405234801561001057600080fd5b50600436106100885760003560e01c80638da5cb5b1161005b5780638da5cb5b146100ef578063f2fde38b1461010d578063fa27eeb514610129578063fc0c546a1461014557610088565b80632eb4a7ab1461008d578063715018a6146100ab57806373b2e80e146100b55780638afbf669146100e5575b600080fd5b610095610163565b6040516100a29190610838565b60405180910390f35b6100b3610169565b005b6100cf60048036038101906100ca91906108c5565b61017d565b6040516100dc919061090d565b60405180910390f35b6100ed61019d565b005b6100f761032e565b6040516101049190610937565b60405180910390f35b610127600480360381019061012291906108c5565b610357565b005b610143600480360381019061013e9190610b0d565b6103dd565b005b61014d6105fd565b60405161015a9190610bc8565b60405180910390f35b60015481565b610171610623565b61017b60006106aa565b565b60036020528060005260406000206000915054906101000a900460ff1681565b6101a5610623565b6000600260009054906101000a900473ffffffffffffffffffffffffffffffffffffffff1673ffffffffffffffffffffffffffffffffffffffff166370a08231306040518263ffffffff1660e01b81526004016102029190610937565b602060405180830381865afa15801561021f573d6000803e3d6000fd5b505050506040513d601f19601f820116820180604052508101906102439190610bf8565b9050600260009054906101000a900473ffffffffffffffffffffffffffffffffffffffff1673ffffffffffffffffffffffffffffffffffffffff1663a9059cbb61028b61032e565b836040518363ffffffff1660e01b81526004016102a9929190610c34565b6020604051808303816000875af11580156102c8573d6000803e3d6000fd5b505050506040513d601f19601f820116820180604052508101906102ec9190610c89565b61032b576040517f08c379a000000000000000000000000000000000000000000000000000000000815260040161032290610d13565b60405180910390fd5b50565b60008060009054906101000a900473ffffffffffffffffffffffffffffffffffffffff16905090565b61035f610623565b600073ffffffffffffffffffffffffffffffffffffffff168173ffffffffffffffffffffffffffffffffffffffff16036103d15760006040517f1e4fbdf70000000000000000000000000000000000000000000000000000000081526004016103c89190610937565b60405180910390fd5b6103da816106aa565b50565b600360003373ffffffffffffffffffffffffffffffffffffffff1673ffffffffffffffffffffffffffffffffffffffff16815260200190815260200160002060009054906101000a900460ff161561046a576040517f08c379a000000000000000000000000000000000000000000000000000000000815260040161046190610d7f565b60405180910390fd5b6000338260405160200161047f929190610c34565b604051602081830303815290604052805190602001206040516020016104a59190610dc0565b6040516020818303038152906040528051906020012090506104ca836001548361076e565b610509576040517f08c379a000000000000000000000000000000000000000000000000000000000815260040161050090610e27565b60405180910390fd5b600260009054906101000a900473ffffffffffffffffffffffffffffffffffffffff1673ffffffffffffffffffffffffffffffffffffffff1663a9059cbb33846040518363ffffffff1660e01b8152600401610566929190610c34565b6020604051808303816000875af1158015610585573d6000803e3d6000fd5b505050506040513d601f19601f820116820180604052508101906105a99190610c89565b503373ffffffffffffffffffffffffffffffffffffffff167f650e45f04ef8a0c267b2f78d983913f69ae3a353b2b32de5429307522be0ab55836040516105f09190610e47565b60405180910390a2505050565b600260009054906101000a900473ffffffffffffffffffffffffffffffffffffffff1681565b61062b610785565b73ffffffffffffffffffffffffffffffffffffffff1661064961032e565b73ffffffffffffffffffffffffffffffffffffffff16146106a85761066c610785565b6040517f118cdaa700000000000000000000000000000000000000000000000000000000815260040161069f9190610937565b60405180910390fd5b565b60008060009054906101000a900473ffffffffffffffffffffffffffffffffffffffff169050816000806101000a81548173ffffffffffffffffffffffffffffffffffffffff021916908373ffffffffffffffffffffffffffffffffffffffff1602179055508173ffffffffffffffffffffffffffffffffffffffff168173ffffffffffffffffffffffffffffffffffffffff167f8be0079c531659141344cd1fd0a4f28419497f9722a3daafe3b4186f6b6457e060405160405180910390a35050565b60008261077b858461078d565b1490509392505050565b600033905090565b60008082905060005b84518110156107d2576107c3828683815181106107b6576107b5610e62565b5b60200260200101516107dd565b91508080600101915050610796565b508091505092915050565b60008183106107f5576107f08284610808565b610800565b6107ff8383610808565b5b905092915050565b600082600052816020526040600020905092915050565b6000819050919050565b6108328161081f565b82525050565b600060208201905061084d6000830184610829565b92915050565b6000604051905090565b600080fd5b600080fd5b600073ffffffffffffffffffffffffffffffffffffffff82169050919050565b600061089282610867565b9050919050565b6108a281610887565b81146108ad57600080fd5b50565b6000813590506108bf81610899565b92915050565b6000602082840312156108db576108da61085d565b5b60006108e9848285016108b0565b91505092915050565b60008115159050919050565b610907816108f2565b82525050565b600060208201905061092260008301846108fe565b92915050565b61093181610887565b82525050565b600060208201905061094c6000830184610928565b92915050565b600080fd5b6000601f19601f8301169050919050565b7f4e487b7100000000000000000000000000000000000000000000000000000000600052604160045260246000fd5b6109a082610957565b810181811067ffffffffffffffff821117156109bf576109be610968565b5b80604052505050565b60006109d2610853565b90506109de8282610997565b919050565b600067ffffffffffffffff8211156109fe576109fd610968565b5b602082029050602081019050919050565b600080fd5b610a1d8161081f565b8114610a2857600080fd5b50565b600081359050610a3a81610a14565b92915050565b6000610a53610a4e846109e3565b6109c8565b90508083825260208201905060208402830185811115610a7657610a75610a0f565b5b835b81811015610a9f5780610a8b8882610a2b565b845260208401935050602081019050610a78565b5050509392505050565b600082601f830112610abe57610abd610952565b5b8135610ace848260208601610a40565b91505092915050565b6000819050919050565b610aea81610ad7565b8114610af557600080fd5b50565b600081359050610b0781610ae1565b92915050565b60008060408385031215610b2457610b2361085d565b5b600083013567ffffffffffffffff811115610b4257610b41610862565b5b610b4e85828601610aa9565b9250506020610b5f85828601610af8565b9150509250929050565b6000819050919050565b6000610b8e610b89610b8484610867565b610b69565b610867565b9050919050565b6000610ba082610b73565b9050919050565b6000610bb282610b95565b9050919050565b610bc281610ba7565b82525050565b6000602082019050610bdd6000830184610bb9565b92915050565b600081519050610bf281610ae1565b92915050565b600060208284031215610c0e57610c0d61085d565b5b6000610c1c84828501610be3565b91505092915050565b610c2e81610ad7565b82525050565b6000604082019050610c496000830185610928565b610c566020830184610c25565b9392505050565b610c66816108f2565b8114610c7157600080fd5b50565b600081519050610c8381610c5d565b92915050565b600060208284031215610c9f57610c9e61085d565b5b6000610cad84828501610c74565b91505092915050565b600082825260208201905092915050565b7f546f6b656e207472616e73666572206661696c65640000000000000000000000600082015250565b6000610cfd601583610cb6565b9150610d0882610cc7565b602082019050919050565b60006020820190508181036000830152610d2c81610cf0565b9050919050565b7f416464726573732068617320616c726561647920636c61696d65640000000000600082015250565b6000610d69601b83610cb6565b9150610d7482610d33565b602082019050919050565b60006020820190508181036000830152610d9881610d5c565b9050919050565b6000819050919050565b610dba610db58261081f565b610d9f565b82525050565b6000610dcc8284610da9565b60208201915081905092915050565b7f496e76616c69642070726f6f6600000000000000000000000000000000000000600082015250565b6000610e11600d83610cb6565b9150610e1c82610ddb565b602082019050919050565b60006020820190508181036000830152610e4081610e04565b9050919050565b6000602082019050610e5c6000830184610c25565b92915050565b7f4e487b7100000000000000000000000000000000000000000000000000000000600052603260045260246000fdfea2646970667358221220f8e01b82e22561c567030abf5fa2631b5af1a8c58867ca091d121bb30da853e764736f6c63430008180033",
  "linkReferences": {},
  "deployedLinkReferences": {}
}